:020000040000FA
:1000000008020020D5000000EF000000770100008A
:1000100000000000000000000000000000000000E0
:10002000000000000000000000000000F3000000DD
:100030000000000000000000F5000000EF010000DB
:10004000AF010000B7010000BF010000CB010000BC
:100050006301000081030000A1030000AD03000064
:10006000970100009F010000D7010000E30100009C
:10007000870100008F010000690300007103000088
:1000800079030000F90000008903000091030000DB
:1000900099030000A7010000D5030000F90000004B
:1000A00043010000F9000000C1030000B903000093
:1000B0004F010000F90000006B0100005701000033
:1000C0000348854600F024F8004800473501000049
:1000D0000802002009480A4A002100A1814200D9F3
:1000E0000244084802600848804708480047FEE785
:1000F000FEE7FEE7FEE7FEE7FEE700000000002067
:100100000000000008ED00E0F5020000C100000062
:10011000064C0125064E05E0E36807CC2B430C3C5A
:1001200098471034B442F7D3FFF7CEFFFC0300002A
:100130001C04000080B500F0DDF800F04FF900204D
:1001400080BD80B5C046C046C046C04680BD80B5B3
:10015000C046C04680BD80B5C046C046C046C04609
:1001600080BD80B5C046C04680BD80B5C046C04693
:10017000C046C04680BD81B0002000900098002895
:10018000FCD001B0704780B5C046C04680BD80B588
:10019000C046C04680BD80B5C046C04680BD80B563
:1001A000C046C04680BD80B5C046C04680BD80B553
:1001B000C046C04680BD80B5C046C04680BD80B543
:1001C000C046C046C046C04680BD80B5C046C04699
:1001D000C046C04680BD80B5C046C046C046C04689
:1001E00080BD80B5C046C046C046C04680BD80B513
:1001F000C046C04680BD0000FCB53448068845882E
:1002000081880191C488078C514A11460C390868CD
:100210000006430F042B0FD800942D487B441B7914
:100220005B009F44024E0B10130013684A4F3B4083
:10023000B34217D1274844E0002042E09068434A87
:100240000240BA4214D00120C0033AE0136B0324E9
:100250001C40032C30D113683F4F3B40B3420AD1BE
:100260001C4B2AE013683B40AB420AD11A4828E0F5
:100270004B20400225E013683B40AB4208D1164BAF
:100280001BE013683B40019CA34208D1134818E0CF
:1002900013683B40019CA34208D1104B0DE012684B
:1002A0003A40009B9A420CD00D480AE013683B404C
:1002B000009CA34200D00A480346106BC005000F03
:1002C000584309684905490FC840FCBD000C10009F
:1002D00000127A0000366E01408651010024F400BD
:1002E00000093D0080B5FFF787FF0149086080BD28
:1002F0000000002010B51448418B144A0A40144CE9
:10030000A168144B0B409918A16000881249014064
:100310002068124A024050182060FFF7E3FF60692E
:100320000121090762690A4362610D49CA680D4BE0
:100330001340CB600A68B0231A430A600A6A1A4362
:100340000A62606110BDC046080C1000FF03000087
:100350000C20004000FCFFFFFF07000000F8FFFF3B
:10036000401D02404FFF000080B5C046C04680BD22
:1003700080B5C046C04680BD80B5C046C04680BD81
:1003800080B5C046C04680BD80B5C046C04680BD71
:1003900080B5C046C04680BD80B5C046C04680BD61
:1003A00080B5C046C046C046C04680BD80B5C04688
:1003B000C046C046C04680BD80B5C046C04680BD70
:1003C00080B5C046C046C046C046C046C046C046CE
:1003D000C04680BD80B5C046C04680BDFEE702E095
:1003E00008C8121F08C1002AFAD1704770470020C0
:1003F00001E001C1121F002AFBD170472004000058
:100400000000002008000000DE03000028040000B7
:100410000800002000020000EE03000000000000C1
:0804200000093D00000000008E
:04000005000000C136
:00000001FF
