:020000040000FA
:1000000030020020D5000000EF000000E9040000ED
:1000100000000000000000000000000000000000E0
:10002000000000000000000000000000F3000000DD
:100030000000000000000000F5000000770500004F
:100040002105000029050000310500003D050000E4
:10005000A5030000DD080000FD08000009090000FC
:1000600009050000110500004905000055050000C4
:10007000F904000001050000C5080000CD080000DB
:10008000D5080000F9000000E5080000ED080000B8
:10009000F50800001905000031090000F900000012
:1000A00083010000F90000001D090000150900008F
:1000B0000D020000F9000000310400006903000097
:1000C0000348854600F044F80048004775010000E9
:1000D0003002002009480A4A002100A1814200D9CB
:1000E0000244084802600848804708480047FEE785
:1000F000FEE7FEE7FEE7FEE7FEE700000000002067
:100100000000000008ED00E051080000C100000000
:1001100070B50446002903D000202022012310E0FE
:10012000002801D00020C043C046C0460DE025464F
:10013000D5408D4205D30D469540641B1D46954024
:1001400040191546521E002DF1DC214670BD0000FD
:10015000064C0125064E05E0E36807CC2B430C3C1A
:1001600098471034B442F7D3FFF7AEFF180B0000E6
:10017000380B000080B500F06BFB00F025FC002080
:1001800080BD80B5C046C046C046C04680BD0000A8
:1001900070B54A4A137880241C431470037A0F24E4
:1001A0001C40137DF0251D402B191375137DDF2492
:1001B0001C40147503689361137D20241C4314753F
:1001C00043689361447A01239D079669AE43A4076F
:1001D000E40FA407A4199461447A5D079669AE43BD
:1001E000E407A408A4199461007A8340907D012952
:1001F00001D0984300E01843907510787F210140AA
:100200001170002010560028FBD470BD80B500F09E
:10021000B1F880BDB0B529490A78802313430B702B
:100220008279FF231C068D68A5431206AA188A60EE
:10023000C2788C689C43A2188A6003797F221402DA
:100240008D68A5435B065B0C5B198B6043791404D6
:100250008D68A5435B065B0A5B198B600B781340C6
:100260000B7000228B56002BFBD4C379CC790F2561
:100270002C401B01E318CB71037A2B40CC79F0257D
:100280002540EB18CB7183788C78DF252540DB0780
:100290009B0EEB188B700378CC78F7252540DB0795
:1002A0001B0FEB18CB704078CB78BF241C40C007E5
:1002B000400E2018C8700A71B0BDC046A0000340AF
:1002C0000C4A012902D11168014301E01168814300
:1002D0001160704707490A68024B134003430B60E3
:1002E0007047C046FF002AFF024909680840411EC6
:1002F00088417047A400034007490A6802604A68C1
:1003000042608A688260C968C1600448017810222E
:100310000A4302707047C04600000340A300034038
:1003200010B5027C0F490B787F241C40D201A21823
:100330000A700268074B1A6042685A6082689A60C5
:10034000C268DA60007C012803D148784022024369
:100350004A7010BD5000034002490A7802430A70F7
:100360007047C046A100034080B5C046C046C046A5
:10037000C04680BDB0B50125EC032046FFF7B4FFB1
:1003800001280BD12046FFF7A5FF80200021FFF7B1
:1003900097FF034C201DFFF7AFFF2570B0BDC0468F
:1003A0000800002080B5C046C04680BDB0B500281A
:1003B0000BD41F23034001249C40194B1C60C4B282
:1003C000184BE3180325AB4304E00C230340134C04
:1003D0001B190446A407E40E8907090EA140FF2556
:1003E000A5401C68AC430C431C60012A08D10028BE
:1003F00012D41F210840012181400C480160B0BD8A
:10040000002809D41F2108400121814006480160CD
:10041000BFF34F8FBFF36F8FB0BDC04614ED00E048
:1004200080E200E000E400E080E100E000E100E0C4
:1004300080B5C046C046C046C04680BD80B5034AB0
:100440008018012200F08CF8002080BD140D0240BD
:10045000FEB515460E4601901C49471838460C302B
:100460000024314622460294194B9847B000019966
:1004700008181C494450384608302A783146144C34
:10048000A0476A7838463146A04738461C30AA78DB
:100490003146A04738462030EA783146A0473846F2
:1004A00024302A793146A0472C376A7938463146BC
:1004B000A047A8790121C903064A13688B43C007E6
:1004C000000CC01810600298FEBDC046000D02402E
:1004D00061050000080F02408900401801494250A0
:1004E00000207047000C024081B00020009000986E
:1004F0000028FCD001B0704780B5C046C04680BD22
:1005000080B5C046C04680BD80B5C046C04680BDEF
:1005100080B5C046C04680BD80B5C046C04680BDDF
:1005200080B5C046C04680BD80B5C046C04680BDCF
:1005300080B5C046C046C046C04680BD80B5C046F6
:10054000C046C046C04680BD80B5C046C046C04615
:10055000C04680BD80B5C046C046C046C04680BDCE
:1005600001238B40012A02D10168194301E001688F
:1005700099430160704780B5C046C04680BD000009
:10058000F8B50C46A64DA749A960A749A9602E6AEF
:10059000274604281DD8800001A108588746C04678
:1005A000B5050000F90500002B0600004D0600000F
:1005B00081060000601E8741286801218843C01918
:1005C00028600020002C77D0C902EA680A42FCD0DB
:1005D00072E048286FD1601E8741380301210A0369
:1005E000AB6D93431818A8650020002C64D0C90295
:1005F000AA6D0A42FCD05FE001200007296A01438E
:1006000029623048016803220A430260601E874164
:100610007800296802229143081828600020002CE5
:100620004AD029694906FCD546E0601E8741B800DA
:10063000296804229143081828600020002C3BD030
:10064000012109036A690A42FCD035E00120000754
:10065000296A014329620320800319490A68024379
:100660000A60601E8741F800296808229143081833
:1006700028600020002C1FD0A9694906FCD51BE08A
:10068000012001042A6A0A432A620C490A680243CB
:100690000A60142000F050F9601E87413801296873
:1006A00010229143081828600020002C04D0E96B28
:1006B0004903FCD500E004202E62F8BD0024004070
:1006C0008C0D02404C1D0240FCB53448068845881C
:1006D00081880191C488078C744A11460C390868D6
:1006E0000006430F042B0FD800942D487B441B7940
:1006F0005B009F44024E0B10130013686D4F3B408C
:10070000B34217D1274844E0002042E09068664A8F
:100710000240BA4214D00120C0033AE0136B032414
:100720001C40032C30D11368624F3B40B3420AD1C6
:100730001C4B2AE013683B40AB420AD11A4828E020
:100740004B20400225E013683B40AB4208D1164BDA
:100750001BE013683B40019CA34208D1134818E0FA
:1007600013683B40019CA34208D1104B0DE0126876
:100770003A40009B9A420CD00D480AE013683B4077
:10078000009CA34200D00A480346106BC005000F2E
:10079000584309684905490FC840FCBD000C1000CA
:1007A00000127A0000366E01408651010024F400E8
:1007B00000093D0080B50A4601468006044802D57E
:1007C000DF231940001DFFF7CBFE002080BDC0468F
:1007D000202000401A490A680C239A438007000F22
:1007E000101808600020704715490A6830239A43A2
:1007F0008007800E101808600020704780B50849F7
:10080000084A8A60084A8A600A68E0239A434007D7
:10081000000E1018086000F015F8002080BDC046DA
:10082000002000405A5A0000A5A5000003210840FE
:10083000034A13688B431818106000207047C046A5
:100840001020004080B5FFF73FFF5E49086080BD83
:1008500010B51448418B144A0A40144CA168144B3B
:100860000B409918A1600088124901402068124A83
:10087000024050182060FFF7E5FF60690121090779
:1008800062690A4362610D49CA680D4B1340CB602F
:100890000A68B0231A430A600A6A1A430A6260614E
:1008A00010BDC046080C1000FF0300000C200040E3
:1008B00000FCFFFFFF07000000F8FFFF401D0240A3
:1008C0004FFF000080B5C046C04680BD80B5C04621
:1008D000C04680BD80B5C046C04680BD80B5C0461C
:1008E000C04680BD80B5C046C04680BD80B5C0460C
:1008F000C04680BD80B5C046C04680BD80B5C046FC
:10090000C046C046C04680BD80B5C046C046C04651
:10091000C04680BD80B5C046C04680BD80B5C046DB
:10092000C046C046C046C046C046C046C04680BD60
:1009300080B5C046C04680BDF8B504461F4E20486D
:1009400070600027B760052030600B4D002C0DD083
:10095000641EB7601B4800682946FFF7D9FB184999
:10096000081A401CB1688142FCD8EFE730680121C9
:1009700088433060F8BDC046A0860100F8B5044643
:100980000E4D0F4868600027AF60052028600D4EAF
:10099000002C0DD0641EAF607D20C1003068FFF7D1
:1009A000B7FB0749081A401CA9688142FCD8EFE749
:1009B0002868012188432860F8BDC04610E000E0A7
:1009C000FFFFFF000000002088B000242046FFF752
:1009D00001FF01252846FFF729FF0320FFF704FF49
:1009E00028462946FFF7CCFD0A20FFF7C7FF284617
:1009F000FFF704FF1C2001902946FFF7DBFE02AE43
:100A0000B571B48075807570C0273846214632466E
:100A1000334B98477470384629463246304B9847D6
:100A200005210091384632462D4B984738462146DD
:100A30002A46FFF751FD384629462A46FFF74CFD66
:100A400038460099FFF7FAFC21202946FFF7B2FE4D
:100A500005A80F2606722349069123490591FFF741
:100A6000D9FB02A804812149039121490291294619
:100A7000FFF78EFB80202946FFF722FC01982146D4
:100A80002A46FFF793FC1B4D287A402101402A7823
:100A9000012AFDD100292246FAD100212970696876
:100AA0006961CF2101402A7E3023134059182976ED
:100AB000304029461C31002806D00A46103A1278E8
:100AC0000A70491C401EF6E728461430FFF728FC40
:100AD0001020FFF741FC80200121FFF7F1FBD3E755
:100AE000510400000202000A00010003FFFFFF1F83
:100AF000520300000800002002E008C8121F08C1CD
:100B0000002AFAD170477047002001E001C1121F8E
:100B1000002AFBD170470000380B000000000020C5
:100B200008000000F80A0000400B00000800002048
:100B300028020000080B000000093D000000000032
:04000005000000C136
:00000001FF
