:020000040000FA
:1000000068020020D5000000EF0000008907000012
:1000100000000000000000000000000000000000E0
:10002000000000000000000000000000F3000000DD
:100030000000000000000000F5000000AD08000016
:10004000C1070000C9070000D1070000DD0700005C
:1000500025060000290C0000490C0000550C00008A
:10006000A9070000B1070000FD0700000908000013
:1000700099070000A1070000110C0000190C0000F6
:10008000210C0000F9000000310C0000390C0000C8
:10009000410C0000B9070000090E0000F900000043
:1000A00097030000F9000000C10D0000610C000082
:1000B000D5040000F9000000B1060000E9050000C9
:1000C0000348854600F04EF90048004789030000C8
:1000D0006802002009480A4A002100A1814200D993
:1000E0000244084802600848804708480047FEE785
:1000F000FEE7FEE7FEE7FEE7FEE700000000002067
:100100000000000008ED00E09D0B0000C1000000B1
:1001100003460B439B0703D009E008C9121F08C020
:10012000042AFAD203E00B780370401C491C521ECB
:10013000F9D27047F8B502464A40D40F42004B004E
:1001400052085B089A4202D20246084611464A000B
:1001500023D0C30D4A00DDB2120EAD1A202D35DAC0
:1001600049020126490AF6058A19002C00D052429C
:1001700020214F1B1146B9402A411018C20D9A4246
:1001800021D0002C17D0012D08DCDA05801AD20FFF
:100190008019D207DBB200F0ABF8F8BDDA05801A9F
:1001A000012340001B06C01880185A428018CA0F4D
:1001B0001043490007E04908C2071143DA05801AD5
:1001C00080194008801800F08BF8F8BD610001220A
:1001D000511A001BF7E70122D2075140AAE701227A
:1001E000D2075040A6E770B502464A40D50F4000FE
:1001F0004A00ED0740085208002814D0002A12D007
:10020000C40DD30D41020120C0055202490A520A11
:10021000E41A091812187D34914201D3641C00E0DD
:100220004900002C01DA002070BD0023914201D367
:10023000891A0343400849000028F7D100290AD051
:10024000914202D10121C90705E0914201D2012169
:1002500001E00121C943E005C018401900F040F851
:1002600070BD10B500229623114600F041F810BD74
:10027000C20F410040020123400ADB05D207090EEC
:10028000C0187F2901DA00207047962903DC9623E5
:10029000591AC84001E096398840002AF4D04042FB
:1002A000704770B50446002903D0002020220123A6
:1002B00010E0002801D00020C043C046C0460DE039
:1002C0002546D5408D4205D30D469540641B1D46FD
:1002D000954040191546521E002DF1DC214670BD97
:1002E000002904DA401C490001D140084000704751
:1002F00070B40024050C05D11024000402D100299B
:1003000021D01124050E01D100020834050F01D1BE
:100310000001241D850F01D18000A41C002801DBF1
:100320004000641C002908D020252E1B0D46F540F6
:10033000A14000D001212943084301061B1B000AEC
:10034000DB1D02D5002070BC7047DB051818801833
:100350000029F8DA401C4900F5D170BC4008400083
:1003600070470000064C0125064E05E0E36807CC07
:100370002B430C3C98471034B442F7D3FFF7A4FE4C
:10038000AC160000CC16000080B500F007FC00F0B1
:1003900093FE002080BD80B5C046C046C046C04622
:1003A00080BDFEB501AD07210091284600F032FE68
:1003B0001C200126314600F0A1FB00206870402778
:1003C0000624384621462A4600F088F93846214658
:1003D000324600F0C7F96E703846009C21462A4626
:1003E00000F07CF938462146324600F0BBF9FEBDEC
:1003F000F0B587B003AD1021284600F00BFE68462B
:100400000C2100F007FE002601243046214600F0B2
:1004100075FB6002A8804B20C0010690C0200390AD
:1004200000F062FB0590A7073846294600F084FCDF
:100430003846314600F05CFC3846214600F058FC56
:100440003846214600F06BFC07200321224600F0CD
:10045000EDF807B0F0BD000070B54A4A137880246B
:100460001C431470037A0F241C40137DF0251D409B
:100470002B191375137DDF241C40147503689361D9
:10048000137D20241C43147543689361447A01232F
:100490009D079669AE43A407E40FA407A4199461CD
:1004A000447A5D079669AE43E407A408A4199461F1
:1004B000007A8340907D012901D0984300E01843E1
:1004C000907510787F21014011700020105600288F
:1004D000FBD470BD80B500F08DF880BDB0B5294962
:1004E0000A78802313430B708279FF231C068D68E2
:1004F000A5431206AA188A60C2788C689C43A21889
:100500008A6003797F2214028D68A5435B065B0C29
:100510005B198B60437914048D68A5435B065B0A05
:100520005B198B600B7813400B7000228B56002BED
:10053000FBD4C379CC790F252C401B01E318CB7178
:10054000037A2B40CC79F0252540EB18CB718378CA
:100550008C78DF252540DB079B0EEB188B7003782A
:10056000CC78F7252540DB071B0FEB18CB704078C4
:10057000CB78BF241C40C007400E2018C8700A71F9
:10058000B0BDC046A00003400C4A012902D1116849
:10059000014301E0116881431160704707490A680F
:1005A000024B134003430B607047C046FF002AFF15
:1005B000024909680840411E88417047A400034071
:1005C00007490A6802604A6842608A688260C968AE
:1005D000C1600448017810220A4302707047C04687
:1005E00000000340A300034080B5C046C046C0469B
:1005F000C04680BDB0B50125EC032046FFF7D8FF0B
:1006000001280CD12046FFF7C9FF80200021FFF709
:10061000BBFF034C20460830FFF7D2FF2570B0BD6A
:100620004800002080B5C046C04680BDB0B5002857
:100630000BD41F23034001249C40194B1C60C4B2FF
:10064000184BE3180325AB4304E00C230340134C81
:100650001B190446A407E40E8907090EA140FF25D3
:10066000A5401C68AC430C431C60012A08D100283B
:1006700012D41F210840012181400C480160B0BD07
:10068000002809D41F21084001218140064801604B
:10069000BFF34F8FBFF36F8FB0BDC04614ED00E0C6
:1006A00080E200E000E400E080E100E000E100E042
:1006B00080B5C046C046C046C04680BD0268CA403C
:1006C000012010407047000080B5034A80180122C5
:1006D00000F0A0F8002080BD140D0240FEB51546C4
:1006E0000E4601901C49471838460C30002431460C
:1006F00022460294194B9847B000019908181C49EA
:100700004450384608302A783146144CA0476A785D
:1007100038463146A04738461C30AA783146A047B3
:1007200038462030EA783146A047384624302A79C6
:100730003146A0472C376A7938463146A047A87918
:100740000121C903064A13688B43C007000CC01877
:1007500010600298FEBDC046000D02401508000062
:10076000080F02408900401801494250002070479C
:10077000000C024080B5034BC01800F04BF800207D
:1007800080BDC046080D024081B000200090009856
:100790000028FCD001B0704780B5C046C04680BD7F
:1007A00080B5C046C04680BD80B5C046C04680BD4D
:1007B00080B5C046C04680BD80B5C046C04680BD3D
:1007C00080B5C046C04680BD80B5C046C04680BD2D
:1007D00080B5C046C046C046C04680BD80B5C04654
:1007E000C046C046C04680BD03490A6882430A60CD
:1007F0000A6802430A6070472820004080B5C0465E
:10080000C046C046C04680BD80B5C046C046C04652
:10081000C04680BD01238B40012A02D101681943E3
:1008200001E0016899430160704710B50022026041
:10083000012343604B780C781C438B782343C978A1
:10084000194340230B4303608260104610BD10B56E
:10085000002393420BD084686407FCD50024C46055
:100860008468A407FCD5C468CC545B1CF1E781689C
:100870000907FCD4002010BD10B5002393420BD013
:1008800084686407FCD5CC5CC4608468A407FCD58C
:10089000C468CC545B1CF1E781684907FCD58168CA
:1008A0000907FCD4002010BD4160704780B5C046E8
:1008B000C04680BDF8B50C46AB4DAC49A960AC490B
:1008C000A9602E6A274604281DD8800001A1085877
:1008D0008746C046E90800002D0900005F090000B6
:1008E00081090000B5090000601E874128680121C8
:1008F0008843C01928600020002C77D0C902EA681C
:100900000A42FCD072E048286FD1601E874138034C
:1009100001210A03AB6D93431818A8650020002C31
:1009200064D0C902AA6D0A42FCD05FE00120000732
:10093000296A014329623048016803220A430260A0
:10094000601E8741780029680222914308182860B8
:100950000020002C4AD029694906FCD546E0601EDB
:100960008741B800296804229143081828600020B4
:10097000002C3BD0012109036A690A42FCD035E012
:1009800001200007296A01432962032080031949D5
:100990000A6802430A60601E8741F800296808223D
:1009A0009143081828600020002C1FD0A96949062F
:1009B000FCD51BE0012001042A6A0A432A620C4983
:1009C0000A6802430A60142000F02EFB601E874173
:1009D0003801296810229143081828600020002C53
:1009E00004D0E96B4903FCD500E004202E62F8BD79
:1009F000002400408C0D02404C1D0240FCB53448E0
:100A00000688458881880191C488078C7A4A1146F6
:100A10000C3908680006430F042B0FD800942D48AA
:100A20007B441B795B009F44024E0B10130013683C
:100A3000734F3B40B34217D1274844E0002042E0C7
:100A400090686C4A0240BA4214D00120C0033AE0D8
:100A5000136B03241C40032C30D11368684F3B40B8
:100A6000B3420AD11C4B2AE013683B40AB420AD187
:100A70001A4828E04B20400225E013683B40AB4277
:100A800008D1164B1BE013683B40019CA34208D1E0
:100A9000134818E013683B40019CA34208D1104B57
:100AA0000DE012683A40009B9A420CD00D480AE0D3
:100AB00013683B40009CA34200D00A480346106BD9
:100AC000C005000F584309684905490FC840FCBDDF
:100AD000000C100000127A0000366E0140865101B1
:100AE0000024F40000093D0080B5FFF787FF1E4990
:100AF0000968C904890FC84080BDC04680B50A4650
:100B000001468006044802D5DF231940001DFFF787
:100B100081FE002080BDC046202000401A490A689E
:100B20000C239A438007000F1018086000207047BC
:100B300015490A6830239A438007800E1018086010
:100B40000020704780B50849084A8A60084A8A60D0
:100B50000A68E0239A434007000E1018086000F06E
:100B600015F8002080BDC046002000405A5A000001
:100B7000A5A5000003210840034A13688B431818F9
:100B8000106000207047C0461020004080B5FFF77D
:100B900035FF0149086080BD1000002010B51448E1
:100BA000418B144A0A40144CA168144B0B4099180D
:100BB000A1600088124901402068124A0240501882
:100BC0002060FFF7E3FF60690121090762690A43BA
:100BD00062610D49CA680D4B1340CB600A68B023AF
:100BE0001A430A600A6A1A430A62606110BDC0466D
:100BF000080C1000FF0300000C20004000FCFFFF69
:100C0000FF07000000F8FFFF401D02404FFF0000FB
:100C100080B5C046C04680BD80B5C046C04680BDD8
:100C200080B5C046C04680BD80B5C046C04680BDC8
:100C300080B5C046C04680BD80B5C046C04680BDB8
:100C400080B5C046C04680BD80B500F00DF8C046F6
:100C5000C04680BD80B5C046C046C046C04680BDC7
:100C600080B5C046C04680BD70B501208407002510
:100C70002046294600F05AF8002813D000212046CB
:100C800000F036F8204600F091F817498A78531C96
:100C90008B708918C870D8B2022803D3002120466F
:100CA00000F02EF80121204600F040F8002819D06D
:100CB0000121204600F01CF80B4E7078411C717029
:100CC0000A49095C204600F074F87078022809D3BC
:100CD000B57075700121204600F012F820462946B3
:100CE00000F01DF870BDC046480000203C00002008
:100CF00010B5143000242246FFF78CFD204610BDAD
:100D000010B5001D00242246FFF784FD204610BDCB
:100D100080B5001D0122FFF77DFD002080BD80B55C
:100D2000001D0122FFF776FD002080BD80B5103048
:100D3000FFF7C4FC80BD0000F8B500292ED00E4698
:100D4000054600244460487849880143B088084338
:100D50003178014388B26860307880210143C0292E
:100D60001DD1B088400A80000EA10F5AB068FFF76D
:100D700078FA0090F068B840FFF773FA01460098DF
:100D8000FFF731FA3F210906FFF7D4F9FFF770FAB0
:100D9000A86104212846FFF7BBFF00E00424204699
:100DA000F8BDC04604000000030000000068C0B2A7
:100DB00070470268FF239A43511801600020704772
:100DC00080B5C046C046C046C046C046C046C046C4
:100DD000C04680BD10B588B001AC09491722204635
:100DE000FFF796F907480146083100F0EFFA204670
:100DF00000F03AFB0F2007A900F08AF808B010BDF8
:100E0000941600000000002080B5C046C04680BD9A
:100E1000B0B504467E4DA868804728698047E969D7
:100E2000200CC0B28847E969200AC0B28847E96946
:100E3000E0B28847A8698047044668698047E86847
:100E400080472046B0BDC046F8B514460D4606465C
:100E50006F4FB868804738698047F969300CC0B275
:100E60008847F969300AC0B28847F969F0B2884703
:100E7000002C05D0B869804728706D1C641EF7E708
:100E800078698047F8688047F8BDC04670B50C4661
:100E900005465F4EB068804730698047F169280C8D
:100EA000C0B28847F169280AC0B2884704202843A5
:100EB000C0B2F1698847F169204688477069804768
:100EC000F068804770BDC046F8B514460D4606462A
:100ED0004F4FB868804738698047F969300CC0B215
:100EE0008847F969300AC0B2884704203043C0B24D
:100EF000F9698847002C05D02878F96988476D1C66
:100F0000641EF7E778698047F8688047F8BDC046F7
:100F1000B0B50F284CD80C46800001A10858874670
:100F2000610F0000670F0000B50F0000770F000091
:100F3000BB0F0000C30F0000C90F0000DF0F00004F
:100F40007F0F0000F70F00009B0F0000A30F0000B1
:100F50000B100000FD0F0000AB0F0000051000009B
:100F600000F0AAFA51E02146002C00D008312046BA
:100F700000F02CFA4AE0208800F0FAF945E0244815
:100F800081782170C17861700179A1704179E17037
:100F9000807900216171207137E0204600F024FB48
:100FA00033E0204600F0C8FA2FE000F0FFFA2BE013
:100FB000FF202BE000F0EEF91BE0208800F046FA5D
:100FC00023E000F0F5F914E0617813200002FFF748
:100FD0005DFF217805208002FFF758FF15E0132000
:100FE0000002FFF715FF050205208002FFF710FF42
:100FF0002818208009E000F0E3FA06E0207800F0ED
:1010000013FB03E000F0CAFA2070002040B2B0BD2C
:1010100014000020002806D0002904D0002202700D
:10102000401C491EF8E77047F8B504461F4E20489B
:1010300070600027B760052030600B4D002C0DD08C
:10104000641EB7601B4800682946FFF72AF9184953
:10105000081A401CB1688142FCD8EFE730680121D2
:1010600088433060F8BDC046A0860100F8B504464C
:101070000E4D0F4868600027AF60052028600D4EB8
:10108000002C0DD0641EAF607D20C1003068FFF7DA
:1010900008F90749081A401CA9688142FCD8EFE703
:1010A0002868012188432860F8BDC04610E000E0B0
:1010B000FFFFFF001000002092B000252846FFF738
:1010C0002DFD01242046FFF755FD03200390FFF777
:1010D0002FFD204621460A94FFF7ECFB0A200490DE
:1010E000FFF7C4FF2046FFF72DFD0CAF0721099144
:1010F0003846FFF78FFF1C2008908E4A2146904704
:101100000B95BD707D7025030C248B4B28460295F2
:10111000214605943A4698470222884B28462146A4
:10112000144698470D260196284631463A46824B8A
:101130009847284631462246804B98470F26079607
:10114000284631463A467C4B984728463146224647
:101150007A4B98470A9878700E26284631460096B2
:101160003A46754B9847284631462246734B984776
:101170000B98B870787040263046059D29463A464F
:101180006D4B9847304629462546069422466B4BC0
:1011900098473046019C21463A46674B984730466F
:1011A00021462A46654CA0473046079D29463A46C7
:1011B000614B984730462946069AA0470A9C7C70A6
:1011C0003046009D29463A465B4B984730462946B3
:1011D000069A5A4B9847BC710B9DBD807C807C70F1
:1011E0008020069005993A46534B9847BD707D7014
:1011F000029C2046039D29463A464F4B984720467D
:1012000029460B9F3A46FFF7B5FA06200A9C21466D
:10121000484DA84709982146A8473046FFF7E4FA09
:101220000698FFF7E1FA46480C9046480CAD29466F
:10123000FFF7FBFA44482946FFF7F7FA08982146DA
:101240003C4A90470CAEB471B78074807470C0256E
:10125000284639463246384FB8470B9F77702846A4
:1012600021463246344B984705210591284632469F
:10127000314B9847284639462246304EB0472846DB
:1012800021462246B04728460599FFF71DFA21203E
:101290002146284A90470FA8079901722B491091BF
:1012A0002B490F91FFF71AF90CA8078129490D91D5
:1012B00029490C912146FFF7CFF806982146FFF700
:1012C00063F9089839462246FFF7B0F9FFF782FD27
:1012D000FFF767F8FFF78CF8A0070999890101600B
:1012E0001E4A194D284639463E4690471C49284615
:1012F000049F3A46FFF7ABFA28462146174A904723
:1013000028463146154EB047164928463A46FFF75B
:10131000B3FA28462146B0470A4D28460B99B047F4
:1013200028460F493A46FFF792FA28462146B04729
:10133000FEE7C046FD0A0000DD060000650700006C
:101340001082000000080040004800400202000A2D
:1013500000010003FFFFFF1F52030000A908000067
:101360006000002034000020007870470170704752
:1013700010B50446F021014015200002FFF786FD5C
:1013800017200002210AFFF781FD10BD704770474A
:101390007047704710B515200002FFF739FDF024A3
:1013A000044017200002FFF733FD0002001910BDB2
:1013B00010B50B204002FFF72BFD04460320C002AE
:1013C000FFF726FD0002001910BD0000F8B50C461D
:1013D000054600F071F8002D15D0002001460828C0
:1013E00003D02A5C5118401CF9E748B2102817DCDA
:1013F0000027144E082F06D0E95D3046FFF746FD62
:1014000020367F1CF6E7002C0CD00020014608286F
:1014100003D0225C5118401CF9E748B2102804DDC3
:10142000FF2600E0002670B2F8BD0026064D3746C4
:10143000082FF8D0E15D2846FFF728FD20357F1CF6
:10144000F6E7C046081F0000081E000010B504465D
:101450000B204002E1B2FFF719FD0320C002210A70
:10146000FFF714FD10BD000070B50446092000020E
:101470000622304E2146B0470120000221460E319F
:1014800004252A46B0470520000221460A312A4693
:10149000B0470F200002A11D2A46B047A07C054995
:1014A0000870E07C4870207D8870607DC870A07DE9
:1014B000087170BD40000020F0B58DB00920000219
:1014C000079008A9069106220592194FB8470120F6
:1014D000000204900CA9039104242246B847052079
:1014E000000202900BA901912246B8470F20060284
:1014F0000AAD304629462246B847002780213846A3
:10150000FFF7C4FC3846FFF783FC0A4F079806999B
:10151000059AB847049803992246B847029801995A
:101520002246B847304629462246B8470DB0F0BD9E
:10153000490E0000C90E000010B5044617204002F5
:10154000FFF766FC4106C90F2170382101400846AB
:10155000203842424241084638384342434113430F
:1015600063700A46103A0120102A05D801239340DF
:10157000084A1342024600D10022A27008391829F5
:1015800004D801228A4004490A4200D10020E070B8
:1015900010BDC046010101000100010180B5172006
:1015A0004002FFF735FC0121084080BD80B51720BF
:1015B0004002FFF72DFC30210840411E884180BDCC
:1015C00010B5172044022046FFF722FC7F2101407E
:1015D0002046FFF75BFC2046FFF71AFC8021014301
:1015E0002046FFF753FC10BD80B50178491E4A42E2
:1015F0004A4191014278012A01D138200CE08278D9
:10160000C078012803D1012A05D1182004E0012A5D
:1016100003D1102000E00820014317204002FFF70B
:1016200035FCFFF7CDFF80BD70B50446172045029D
:101630002846FFF7EDFB01464006FF26002815D59A
:10164000012C02D03820014302E0C7200140303194
:101650002846FFF71BFCFFF7B3FF2846FFF7D8FB30
:101660008006012C04D1800F00D0002670B270BD1E
:10167000400FFAD1FAE702E008C8121F08C1002A99
:10168000FAD170477047002001E001C1121F002A03
:10169000FBD170470008DC010203AC195001FFFFC9
:1016A000FF00C0A80101000000000000D0160000EB
:1016B0000000002040000000761600001017000017
:1016C00040000020280200008616000000000000F4
:1016D00002020202020202020202020202020202EA
:1016E00000093D0001025735353030008D130000F0
:1016F0008F13000093130000911300006913000082
:101700006D1300006173640000000000AA55000022
:04000005000000C136
:00000001FF
